:020000040800F2
:1000000078BD00205D02000881230008AD150008BE
:100010007D230008CD150008D52C00080000000045
:10002000000000000000000000000000CD230008D8
:10003000391600080000000083230008D1230008BF
:1000400077020008770200087702000877020008AC
:10005000770200087702000877020008770200089C
:10006000770200087702000877020008770200088C
:10007000770200087702000877020008770200087C
:10008000770200087702000877020008770200086C
:10009000770200087702000877020008770200085C
:1000A000770200087702000877020008770200084C
:1000B000BD250008770200087702000877020008D3
:1000C000770200087702000877020008770200082C
:1000D00077020008B12A00087702000877020008BA
:1000E000770200087702000877020008770200080C
:1000F00077020008770200087702000877020008FC
:1001000077020008770200087702000877020008EB
:1001100077020008770200087702000877020008DB
:1001200077020008770200087702000877020008CB
:1001300077020008770200087702000877020008BB
:1001400077020008770200087702000877020008AB
:10015000770200087702000877020008770200089B
:10016000770200087702000877020008770200088B
:1001700077020008770200087702000800000000FC
:1001800077020008770200084B1C012B98BF7047CC
:100190002DE9F003911C9B08B1F80480B1F802909E
:1001A0000A8831F802CC8044814402448444D9F85E
:1001B0000070D8F800601568DCF80040C9F80060ED
:1001C000C8F80070CCF800501460D9F80470D8F862
:1001D00004605568DCF80440C9F80460C8F804708D
:1001E000CCF80450546008315B1ED5D1BDE8F00353
:1001F00070474B1C012B98BF70472DE9F003911CF1
:100200009B08B1F80480B1F802900A8831F802CC5A
:1002100000EB580800EB590900EB520200EB5C0CB4
:10022000D9F80070D8F800601568DCF80040C9F80B
:100230000060C8F80070CCF80050146008315B1EF4
:10024000DFD1BDE8F0037047DFF80CD001F02CF9E6
:1002500000480047153A000878BD0020064880474E
:1002600006480047FEE7FEE7FEE7FEE7FEE7FEE79B
:10027000FEE7FEE7FEE7FEE7592500084902000811
:10028000DFED190AB5EEC00A60EE200ABDEEE01AF5
:1002900011EE100AF1EE10FA38BF401E00EE100AFF
:1002A0001349F7EE001AB8EEC00A30EEC00ADFEDCF
:1002B0000F0A60EE200ABCEEE00A10EE100AC0F34E
:1002C000080000EE100A01EB8000B8EE400A90ED45
:1002D000011A70EEC00A90ED000A71EEE01A21EEEC
:1002E000800A00EE810A704783F9223E0000004434
:1002F000E06800089FED3D0A5FEA920C57D000BF0E
:10030000D0ED000A90ED011A0B1D60EEA00A083036
:1003100041EE010AF5EEC00AF1EE10FAC6BFB1EEE9
:10032000E01A81ED001A81ED000AD0ED000A90ED8F
:10033000011A191D60EEA00A083041EE010AF5EE1F
:10034000C00AF1EE10FAC6BFB1EEE01A83ED001A52
:1003500083ED000AD0ED000A90ED011A0B1D60EE4E
:10036000A00A083041EE010AF5EEC00AF1EE10FADB
:10037000C6BFB1EEE01A81ED001A81ED000A90EDE2
:10038000001AD0ED010A191D21EE011A083000EE05
:10039000A01AB5EEC01AF1EE10FAC6BFF1EEC10A0E
:1003A000C3ED000A83ED000ABCF1010CA8D112F0E4
:1003B000030208BF704700BFD0ED000A90ED011A9C
:1003C0000B4660EEA00A091D083041EE010AF5EE69
:1003D000C00AF1EE10FAC6BFB1EEE01A83ED001AC2
:1003E00083ED000A521EE7D17047000000000000B4
:1003F0002DE9F04106462DED028B8C46008873688E
:1004000001EB80044508274601EB850004EB8502DB
:100410005FEA95087DD000BFD1ED003AD4ED001A17
:1004200091ED012A94ED013A73EEA16A91ED024A31
:1004300091ED031AD4ED022AD4ED035A90ED008A0F
:1004400090ED017A90ED020A90ED036A92ED005A68
:10045000D2ED014AD2ED027AD2ED030AC1ED006A73
:1004600072EE036A73EEE13A74EEC71AC1ED016AE7
:1004700074EE226A74EE622A37EEC04AC1ED026A57
:1004800071EE256AC1ED036A72EE436A31EE652AA8
:1004900038EE051A35EE483A80ED001A37EE241A88
:1004A00080ED011A30EE271A80ED021A36EE201A7E
:1004B00080ED031A30EEC61A93ED000AD3ED010A5F
:1004C00063EE804A26EEA05A66EE805A63EEA03AAA
:1004D00074EE854A75EEE33AC4ED004A63EE204AB5
:1004E000C4ED013A61EE803A61EEA00A23EE000A03
:1004F00074EEE31A30EE800AC2ED001A82ED010AB2
:1005000093ED020AD3ED030A62EE803A22EE203A1E
:1005100000E024E062EEA01A22EE002A73EE832AA5
:100520001030103172EE611AC4ED022A24EE202A36
:10053000C4ED031A61EE001A61EE200A24EE000AEF
:10054000103332EE611A103430EE800A82ED021A56
:1005500082ED030A1032B8F101087FF45DAF29463D
:1005600002236046726800F0D5FA72682946BDEC35
:10057000028B3846BDE8F041022300F0CBBA2DE9EA
:10058000F34F2DED048B87B00B980088470801EBE3
:10059000870000EB870606EB8705CDE90056DDF8FE
:1005A0002C80A5F1040C0CEB8703CDE902014FEA86
:1005B0005709D8F804800427CDE90497D1ED000A43
:1005C00096ED000A90ED011A95ED013A70EE802A41
:1005D00070EEC03AD1ED010A96ED010A041F321FF8
:1005E00030EE802A70EEC01A31EE230AD0ED000AF8
:1005F00032EE415A33EEC11A30EE434A71EEE04A10
:1006000095ED000A70EEA11A35EE435A74EE805A49
:1006100072EEE04A70EEA20A71EEC01A31EE031AD1
:1006200074EEC04A30EE800A062708F1080A81ED10
:10063000000A90ED010AD5ED010A08F1100B30EE29
:10064000020A08F1180830EE200A81ED010A80ED57
:10065000004AC0ED015AC6ED004A86ED015A85ED0B
:10066000001AC5ED011ADDF8109008300831083580
:100670000836A9F102095FEA590900F0078100BFB5
:10068000D1ED000A96ED000AD0ED011AD5ED014A30
:1006900030EE802A30EEC05AD1ED010A96ED010A03
:1006A00070EE802A30EEC01A31EE850AD5ED000AD0
:1006B00030EE644A90ED000A31EE403A30EE011A15
:1006C00073EE205A32EE403A30EE020A31EE601AF2
:1006D00073EE603A30EE200A32EEE13A75EE611ABE
:1006E00081ED000A90ED010AD5ED010A33EE643A7E
:1006F00030EE220A71EEA41A30EE200A81ED010AD2
:10070000D4ED002ADCED004A54ED010A1CED010A8B
:1007100032EEA47A32EEE49A72EEE42A52ED018AC5
:1007200070EE807A30EEC02A72EEE82AD2ED000A2E
:1007300093ED000A13ED018A30EEC05A72EE886A1A
:1007400077EEE82A35EE026A32EEC85A77EE602A72
:1007500072EEC04A70EEC02A70EE870A72EEC22AAC
:1007600030EE800A38EE682A84ED000A12ED010AA4
:1007700053ED010A32EE492A30EE270A30EE200A04
:1007800004ED010A9AED000ADAED010A64EE007A3E
:1007900025EEA07A65EE805A24EE204A37EE877A5D
:1007A00035EEC44A80ED007A80ED014A26EEA04A7B
:1007B00066EE005A66EE200A26EE800A083034EE15
:1007C000654A083130EE800A82ED004A083C02EDAD
:1007D000010A9BED000ADBED010ADDF814E023EECF
:1007E000804A63EE205A23EE003A63EEA03A083ABC
:1007F00034EE254A0BEB8E0B33EE633A86ED004A5E
:100800000AF1080A86ED013AB1EE643A083663EE61
:10081000003A25EE203A25EE000A64EEA00A33EEF7
:10082000C33A30EEC00A8CED003A0CED010A98EDA7
:10083000000AD8ED010A08EB870861EE803A21EE44
:10084000203A21EE001A61EEA01AACF1080C33EE4A
:10085000833A31EE611A85ED003A62EE801A85ED39
:10086000011A22EE201A62EEA00A22EE000A0835D2
:1008700031EE611A30EE800A83ED001A03ED010AB1
:10088000083BB9F101097FF4FBAE00BFD1ED000ACE
:1008900096ED000A91ED011AD0ED015A30EE802A52
:1008A00070EEC00A96ED010A95ED015A042371EE2F
:1008B000001A71EE404A35EEA00A90ED001A31EEB2
:1008C000E54A70EEE50A30EE453A95ED000A34EE61
:1008D000454A30EE855A74EEC12A72EE413A71EE05
:1008E000240A31EE021A72EE802A73EEC03A70EEDC
:1008F000C00A31EE000A81ED000A90ED010A95ED83
:10090000011A30EE210A30EE010A81ED010A9AED5A
:10091000000A9AED011A63EE001A22EE812A22EEF5
:10092000800A23EE011A71EE821A30EE410AC0ED00
:10093000001A80ED010A9BED000A9BED011A63EE9F
:10094000801A24EE012A24EE000A23EE811A71EEA9
:10095000821A30EE410AC6ED001A86ED010A98EDC2
:10096000010A98ED001A60EE801A25EE012A60EE69
:10097000810A25EE000A32EE211A30EEC00A85ED1A
:10098000001A85ED010A0B984268DDE9030100F0C9
:10099000C1F80B98042304994268029800F0BAF851
:1009A0000B98042304994268019800F0B3F80B985F
:1009B000049904234268009807B0BDEC048B02B090
:1009C000BDE8F04F00F0A6B82DE9F0410488984644
:1009D00017460D460646012A20D1281DF4B1A0F184
:1009E000080114F0010F06D091ED020AB1EE400AA1
:1009F00081ED020A08315FEA540C0FD091ED020A32
:100A0000B1EE400A81ED020A91ED040AB1EE400A0E
:100A100081ED040A1031BCF1010CEFD1B4F5807FF7
:100A20001BD008DC102C13D0202C16D0402C19D051
:100A3000802C0DD01CE0B4F5007F13D0B4F5806F8E
:100A400006D0B4F5006F08D0B4F5805F0AD00FE08F
:100A500029463046FFF7CCFC0AE029463046FFF72E
:100A60008EFD05E0214601232846726800F052F809
:100A7000B8F1000F04D0B1892846B268FFF784FBB3
:100A8000012F18BFBDE8F08100EE104AB7EE001A42
:100A9000002CF8EE400A81EE200A08BFBDE8F08184
:100AA000A5F1080014F0010F0ED0D0ED020A60EE9F
:100AB000800AC0ED020AD0ED030AF1EE600A60EE92
:100AC000800AC0ED030A0830610808BFBDE8F08164
:100AD000D0ED020A60EE800AC0ED020AD0ED030AF2
:100AE000F1EE600A60EE800AC0ED030AD0ED040A60
:100AF00060EE800AC0ED040AD0ED050AF1EE600A4E
:100B000060EE800AC0ED050A1030491EE0D1BDE854
:100B1000F08100002DE9FF4F2DED108B82B09FED8D
:100B2000FEFA0B461C46DB084FF0000C0CEB0305ED
:100B300005EB030808EB030909EB030606EB030AC0
:100B400000EBCC0700EBC60697ED001AD6ED000AC5
:100B50000AEB030B00EBC50500EBCA0A31EE200AD5
:100B600071EE601A95ED002ADAED000A0BEB030E28
:100B700000EBC80832EE201A00EBCB0B32EE602AF5
:100B8000D8ED002ADBED000A00EBC90900EBCE0E20
:100B900099ED003A9EED004A72EEA03A72EEE02A1C
:100BA00073EE040A33EE443A70EE636A70EE233A51
:100BB00031EE600A71EE200A33EEA01A73EEE00AFD
:100BC00087ED001AC6ED000A97ED011AD6ED010A6D
:100BD000D5ED013A98ED014A31EE206A71EE600AD6
:100BE0009AED011A99ED015A73EE814A73EEC13AFA
:100BF0009BED011A34EE017A34EE411A9EED014A62
:100C000075EE045A35EE444A36EE475A36EE076A18
:100C100034EEE57A74EEA54A76EE245A76EE644A0E
:100C2000C7ED015AC6ED014A76EE874AC8ED004A83
:100C300076EEC74ACBED004A75EE404A35EE000A23
:100C4000C8ED014A8BED010A32EE430A32EE032A67
:100C500020EE0F0A62EE0F4A33EEC42AA4448C45FC
:100C600022EE0F3A33EE842A30EEC34A62EE0F3A98
:100C700030EE833A31EEC02A31EE800A71EE630A1B
:100C800031EE231A72EEE41A72EEA42A70EE013AE3
:100C900030EE410AC5ED003A8EED000A32EE200A30
:100CA0008AED000A32EE600A89ED000A33EE620A2C
:100CB00085ED010A33EE220A8EED010A34EE610A57
:100CC0008AED010A34EE210A89ED010AFFF42EAF04
:100CD000082B3FBF02B0BDEC108B04B0BDE8F08F15
:100CE0004FF0000CCDF804C04FF0010CCDF800C05F
:100CF000DDF804C0159DAC444FEA8C0505EB0C07EC
:100D0000CDF804C007EB0C094FEA4C0808EB0C06C1
:100D100009EB0C0A02EBCC0C02EBC80802EBC6068E
:100D200002EBC50502EBC70702EBC90902EBCA0AD1
:100D30009CED00DA9CED018AD8ED00CA96ED00CA60
:100D4000D5ED00BA97ED00BAD9ED00AADAED008A28
:100D5000D8ED017A96ED01AA95ED017AD7ED016AF9
:100D600099ED016ADAED019ADDF800C00CEB03079A
:100D7000FD1805EB030A0AEB030808EB030606EB74
:100D8000030B00EBCC0900EBC808D9ED000A98ED85
:100D9000000A00EBC70700EBC606D7ED001A96ED78
:100DA000001A70EE803A0BEB030E70EEC00A31EEC3
:100DB000810A00EBC50500EBCB0B31EEC11AD5ED76
:100DC000001A9BED002A00EBCA0A00EBCE0E31EEB2
:100DD000824A71EEC21A9AED002ADEED002A32EE46
:100DE000223A32EE622A73EEC42A73EE843A30EE6F
:100DF000435A30EE030A33EE803A73EEC0DA89EDDF
:100E0000003A99ED010A98ED013AD7ED013A95EDD6
:100E1000014A70EE03EA30EE433A96ED010A9AED8C
:100E200001EADEED014A33EE809A73EEC03A9BEDA3
:100E3000010A74EE005A34EE404A3EEE240A7EEE79
:100E4000644A3EEEE5EA7EEEA55A79EE40EA39EED6
:100E5000009A32EEAE0A72EEEE2A75EE89EA35EEAF
:100E6000C99A7EEE455AC9ED01EA3EEE055A2BEECF
:100E7000ADEA67EE09EA2BEE899A67EE2DDA3EEECF
:100E80002EEA39EE6D9A88ED00EA67EEA5DA88ED74
:100E9000019A2CEE809A6CEEA55A27EE800A39EE64
:100EA0002D9A35EEC00A85ED009A66EE055A85ED5D
:100EB000010A2AEEA20A2AEE855A66EE222A30EEAE
:100EC000250A8BED000A35EE620A73EEA42A8BED3B
:100ED000010A31EE420A31EE021A33EEE42A62EEE2
:100EE0008F3A20EE0F0A21EE0F1A22EE0F2A70EE33
:100EF000C02A30EE800A71EEC10A71EE811A33EE1B
:100F0000421A33EE022A34EE633A34EE234A70EE8C
:100F1000043A30EE444A01E0F304353F72EE834A6E
:100F200072EEC32A32EE613A32EE210A71EE601A95
:100F300071EE200A2DEE232A28EE031A2DEE033A35
:100F400068EE233AA44432EE011A28EE842A8C4536
:100F500087ED001A33EE631A29EE843A87ED011A01
:100F600029EE801A28EE800A32EE011A30EE430A8A
:100F700026EEA42A8EED001A8EED010A2BEE240A2D
:100F800026EEA11A6BEE211A30EE010A2CEE221A7F
:100F900086ED000A31EEC20A6AEE221A86ED010AD7
:100FA0002AEE200A6CEE200A31EE000A8AED000AD1
:100FB00030EEE10A8AED010AFFF4D8AEDDF800C098
:100FC0000CF1010CCDF800C063453FF691AEDDF8A1
:100FD00054C04FF6FF7404EACC0CCDF854C0072B74
:100FE0003FF6A0AD02B0BDEC108B04B0BDE8F08FB1
:100FF0002DE9F05F0546002092469B46884606464E
:10100000814640241BE0284641464746224600F0E0
:1010100083F853465A46C01A914110D311461846D8
:10102000224600F06AF82D1A67EB01084F46224667
:101030000120002100F061F817EB00094E41201E4D
:10104000A4F10104DFDC484631462A464346BDE8A8
:10105000F09F40EA01039B0703D009E008C9121F73
:1010600008C0042AFAD203E011F8013B00F8013B62
:10107000521EF9D27047D2B201E000F8012B491E8E
:10108000FBD270470022F6E710B513460A46044625
:101090001946FFF7F0FF204610BD421C10F8011B57
:1010A0000029FBD1801A704700F0004230F0004068
:1010B0000AD0C10D01F56071C0F3160042EA01517A
:1010C000C20840071143704700200146704730B501
:1010D0000B46014600202022012409E021FA02F5F6
:1010E0009D4205D303FA02F5491B04FA02F5284490
:1010F000151EA2F10102F1DC30BD202A04DB203AEA
:1011000000FA02F1002070479140C2F1200320FA5A
:1011100003F3194390407047202A04DB203A21FA58
:1011200002F00021704721FA02F3D040C2F1200200
:1011300091400843194670472DE9FE4F804681EAE9
:101140000300C00F0C46009021F0004123F0004541
:10115000B8EB0200A94105D24046214690461C4604
:101160000B46024623F00040104347D0270DC7F33B
:101170000A00C3F30A510290401A019040286BDA2A
:10118000C3F3130040F4801B0098924620B1002363
:10119000D2EB030A63EB0B0B01985946C0F14002F6
:1011A0005046FFF7AAFF06460D4650465946019A9B
:1011B00000F08CF910EB08006141002487EA11521D
:1011C00084EAE7731A4340D0009A62B3019A012A75
:1011D0004FEA075215DC001B61EB02014FF00042A1
:1011E00002EA0752CDE90042001C41F58011324667
:1011F0002B4600F08CF903B0BDE8F08F4046214645
:10120000F9E7001B61EB0201001C41F58013001897
:101210005B412018A2F5001747EB030140EAD570A7
:10122000B6196D4111E06D084FEA360645EAC07502
:101230004FEA0752001B61EB0201001C41F58011CF
:1012400049084FEA30000019514132462B4603B09D
:10125000BDE8F04F00F04CB9009801224000002397
:10126000D0EB020263EBE073009821464FEAE07492
:10127000B8EB000061EB0401E9E783F000435BE7B2
:1012800081F0004158E72DE9FE4F81EA030404F0A4
:10129000004421F0004100944FF0000B23F0004384
:1012A00050EA01045ED052EA03045BD0C3F30A544F
:1012B000C1F30A552C44A4F2F3340194A0FB025468
:1012C000C1F3130141F48011C3F3130343F48013FA
:1012D00001FB024400FB034E840A970A44EA81544E
:1012E00047EA8357A4FB076802958D0A05FB07852B
:1012F0004FEA932C04FB0C542705029D4FEA065835
:1013000047EA1637B5EB08056EEB070C870E920E11
:1013100047EA811742EA8312A7FB0201B6EB0B01F1
:1013200064EB00042B0D43EA0C335E1844EB1C50B5
:10133000DA465146E7FB0201C5F313044FEA0B33CB
:1013400043EA14534FEA0432019C43EA0603A4F132
:101350000C040294009CCDE900B400F0D8F803B06E
:10136000BDE8F08F00200146F9E72DE9F04D81EA54
:10137000030404F0004B21F0004514464FF0000A2E
:1013800023F0004150EA050220D054EA01021DD0AA
:10139000C5F30A570246C5F31303C1F31300C1F3A3
:1013A0000A5640F4801543F48013A7EB0608101B7F
:1013B000D64608F2FD3873EB050002D308F10108A8
:1013C00001E092185B41B8F1000F03DA00200146FA
:1013D000BDE8F08D00204FF48011064684460EE0F3
:1013E000171B73EB050705D3121B63EB05030643BD
:1013F0004CEA010C49084FEA300092185B4150EA70
:101400000107EDD152EA030012D082EA040083EA18
:101410000501084305D0101BAB4106D20122002371
:1014200006E000224FF0004302E06FF0010253108B
:101430001AEB06004CEB085110EB0A0041EB0B01D4
:10144000BDE8F04D00F054B8C1F30A52C1F31301E6
:1014500040F2FF3341F480119A4202DA0020014643
:10146000704740F233439A42A2F2334202DC5242C6
:10147000FFF752BEFFF741BE30B5041E71F1000404
:1014800004DB4FF00044404264EB0101141E73F191
:10149000000405DB1C464FF00043524263EB04039B
:1014A000994208BF904230BD064C074D06E0E06807
:1014B00040F0010394E8070098471034AC42F6D39B
:1014C000FEF7C6FEE470000804710008202A06DB5F
:1014D000CB17203A41FA02F043EAE07306E041FA02
:1014E00002F3D040C2F120029140084319467047F0
:1014F00010B5141E73F1000408DA401C41F100011C
:1015000092185B411A4301D120F0010010BD2DE972
:10151000F04D92469B4611B1B1FA81F202E0B0FA69
:1015200080F220329046FFF7E8FD04460F4640EA7D
:101530000A0041EA0B0153465A46084313D01146AC
:1015400053EA010019D0C8F140025046FFF7E4FD0C
:1015500005460E46504659464246FFF7CEFD084323
:1015600005D0012004E020463946BDE8F08D00207A
:10157000054346EAE0762C4337430A986305E40ABC
:10158000A0EB08000022FD0A44EA47540A3002D5C5
:1015900000200146E9E7010510196941DDE9084528
:1015A00000196941BDE8F04DA2E700001EF0040FEC
:1015B0000CBFEFF30880EFF3098000F0E9BD0000F5
:1015C0000020014908737047C8B0002000BFFEE743
:1015D00010B504460CB90E4810BD012C01D10020F5
:1015E000FAE7022C01D10020F6E7032C01D10020FC
:1015F000F2E7042C01D10020EEE7052C01D10020F8
:10160000EAE7E82103A000F018F80020E4E7000072
:1016100008B100202E2E5C2E2E5C557365725C6224
:1016200073705C7372635C6273705F756172745F18
:101630006669666F2E630000704701B9704700BF8E
:10164000FEE70000012001490860704700042742BE
:10165000F8B502460B460025002400200021DCE0FE
:10166000012606FA01F51E6806EA0504AC4273D1AC
:101670005E68022E02D05E68122E13D1CF0802F1EE
:10168000200656F827004E07F70E0F26BE40B0433F
:101690004F07FF0E1E69BE403043CF0802F12006FF
:1016A00046F8270010684F000326BE40B0431E795D
:1016B00006F003064F00BE40304310605E68012E06
:1016C00008D05E68022E05D05E68112E02D05E68DA
:1016D000122E13D190684F000326BE40B0434F0036
:1016E000DE68BE4030439060506801268E40B043B3
:1016F0001E79C6F300168E4030435060D0684F000C
:101700000326BE40B0434F009E68BE403043D060C9
:101710005E6806F08056B6F1805F7DD100BF00267E
:101720000096404E366846F480463E4F3E603E4648
:10173000366806F48046009600BF00BF3A4E8F0818
:1017400056F827008E07370F0F26BE40B043374E9E
:10175000B24202D1002624E05EE0354EB24201D111
:1017600001261EE0334EB24201D1022619E0324E6C
:10177000B24201D1032614E0304EB24201D1042618
:101780000FE02F4EB24201D105260AE02D4EB242A3
:1017900001D1062605E02C4EB24201D1072600E019
:1017A00008268F073F0FBE4030431F4E8F0846F874
:1017B0002700264E3068A0435E6806F48036B6F5F2
:1017C000803F00D12043214E3060361D3068A04359
:1017D0005E6806F40036B6F5003F00D120431B4E8C
:1017E000361D3060361D3068A0435E6806F48016F2
:1017F000B6F5801F00D12043144E08363060361DE8
:101800003068A0435E6806F40016B6F5001F00D1EC
:1018100020430E4E0C363060491C1029FFF420AFD7
:10182000F8BD000044380240083801400000024082
:101830000004024000080240000C02400010024078
:101840000014024000180240001C0240003C01400D
:1018500001480068704700005400002003480068F9
:101860000349097808440149086070475400002082
:101870005C00002010B50D48006840F400700B4972
:1018800008600846006840F4806008600846006808
:1018900040F480700860032000F080F80F2000F012
:1018A00007F800F02BF8002010BD0000003C0240BB
:1018B00070B504460E4800784FF47A71B1FBF0F031
:1018C0000C490968B1FBF0F5284600F0DDFB08B1D2
:1018D000012070BD102C07D200222146501E00F0BE
:1018E0001EF80548046001E00120F2E70020F0E75F
:1018F0005C00002060000020580000207047014676
:101900000846002809DB00F01F0301229A40430922
:101910009B0003F1E023C3F8002100BF70472DE9CD
:10192000F05F80460D461646002701F0E5F90746B0
:1019300039462A46334601F00700C0F1070ABAF1DA
:10194000040F02D94FF0040A01E0C0F1070AD146A2
:1019500000F1040ABAF1070F02D24FF0000A01E0C9
:10196000A0F1030AD4464FF0010A0AFA09FAAAF1D3
:10197000010A0AEA020A0AFA0CFA4FF0010B0BFA02
:101980000CFBABF1010B0BEA030B4AEA0B042146FB
:10199000404601F0B9F9BDE8F09F000000BF00F03B
:1019A0000702064B19684FF6FF031940044B0B431F
:1019B00043EA0221014B196000BF70470CED00E0C3
:1019C0000000FA0570B504460D460CB9012070BD43
:1019D0005848006800F00F00A84209D255490D7020
:1019E0000846006800F00F00A84201D00120EEE791
:1019F000207800F0020002281DD1207800F00400B9
:101A0000042805D14C48006840F4E0504A49086079
:101A1000207800F00800082805D14748006840F405
:101A20006040454908604448006820F0F000A16823
:101A3000084341490860207800F00100A8B36068BD
:101A4000012807D13C4808380068C0F34040B8B9C5
:101A50000120BCE76068022802D06068032807D133
:101A6000354808380068C0F3406048B90120AEE747
:101A7000314808380068C0F3400008B90120A6E7E3
:101A80002D48006820F00300616808432A49086077
:101A9000FFF7DEFE064609E0FFF7DAFE801B41F2A3
:101AA0008831884202D9032091E707E02248006884
:101AB00000F00C006168B0EB810FEDD11D480068AB
:101AC00000F00F00A84209D91A490D7008460068B5
:101AD00000F00F00A84201D0012078E7207800F044
:101AE0000400042807D11448006820F4E050E1689D
:101AF000084311490860207800F00800082808D140
:101B00000D48006820F46040216940EAC1000A499C
:101B1000086000F03DF808490968C1F30311074A5D
:101B2000515CC840064908600F20FFF7C1FE002045
:101B30004DE70000003C024008380240A83A000887
:101B4000600000200148006870470000600000202D
:101B500000B5FFF7F7FF04490968C1F38221034A82
:101B6000515CC84000BD000008380240B83A000887
:101B700000B5FFF7E7FF04490968C1F34231034AA2
:101B8000515CC84000BD000008380240B83A000867
:101B90002DE9F047002400250026A14625480068CD
:101BA00000F00C0020B1042805D008283AD105E047
:101BB000DFF8849039E0DFF8849036E01D48001F9C
:101BC000006800F03F041B48001F006800F480001C
:101BD00078B11A481749091F0968C1F38811A0FB99
:101BE00001700146224600233846FFF701FA0546F8
:101BF0000EE011480F49091F0968C1F38811A0FBC5
:101C000001700146224600233846FFF7F1F90546E8
:101C10000848001F0068C0F30140401C4600B5FBA7
:101C2000F6F902E0DFF8109000BF00BF4846BDE8BB
:101C3000F0870000083802400024F40040787D015D
:101C4000F8B504460CB90120F8BD207800F0010079
:101C5000002874D0F948006800F00C0004280DD06A
:101C6000F648006800F00C00082813D1F348001F64
:101C7000006800F48000B0F5800F0BD1EF48083801
:101C80000068C0F34040002859D06068002856D151
:101C90000120D9E700BF6068B0F5803F08D1E74870
:101CA0000838006840F48030E449083908601EE0D4
:101CB0006068B0F5A02F0DD1E0480838006840F406
:101CC0008020DE49083908600846006840F480300A
:101CD00008600CE0D9480838006820F48030D74903
:101CE000083908600846006820F48020086000BFBA
:101CF000606890B1FFF7ACFD054606E0FFF7A8FD70
:101D0000401B642801D903209EE7CC4808380068AE
:101D1000C0F340400028F1D011E0FFF799FD0546DF
:101D200006E0FFF795FD401B642801D903208BE7EF
:101D3000C24808380068C0F340400028F1D120783C
:101D400000F0020002285FD1BC48006800F00C00DF
:101D500058B1BA48006800F00C0008281CD1B748F8
:101D6000001F006800F48000B0B9B448083800686B
:101D7000C0F3400020B1E068012801D0012063E7F2
:101D8000AE480838006820F0F800216940EAC10038
:101D9000AA490839086037E0E06800B30120A84983
:101DA0000860FFF755FD054606E0FFF751FD401BB3
:101DB000022801D9032047E7A04808380068C0F38B
:101DC00040000028F1D09D480838006820F0F80055
:101DD000216940EAC10099490839086014E00020EF
:101DE00097490860FFF734FD054606E0FFF730FD30
:101DF000401B022801D9032026E7904808380068D4
:101E0000C0F340000028F1D1207800F00800082835
:101E10002CD16069A8B101208A490860FFF718FD3C
:101E2000054606E0FFF714FD401B022801D90320F8
:101E30000AE782486C300068C0F340000028F1D007
:101E400014E000207F490860FFF702FD054606E028
:101E5000FFF7FEFC401B022801D90320F4E6774877
:101E60006C300068C0F340000028F1D1207800F009
:101E70000400042870D1002670483830006800F053
:101E8000805090B900BF002000906C483830006846
:101E900040F080506949383108600846006800F019
:101EA0008050009000BF00BF01266748006800F422
:101EB0008070B0B96448006840F48070624908607E
:101EC000FFF7C6FC054606E0FFF7C2FC401B0228F0
:101ED00001D90320B8E65C48006800F4807000284F
:101EE000F2D000BFA068012808D1544868300068CB
:101EF00040F001005149683108601DE0A0680528E4
:101F00000DD14E486830006840F004004B496831FC
:101F100008600846006840F0010008600CE047488F
:101F20006830006820F001004449683108600846C4
:101F3000006820F00400086000BFA068A8B1FFF7A7
:101F400087FC054609E0FFF783FC401B41F288311E
:101F5000884202D9032077E626E0384868300068D6
:101F6000C0F340000028EED013E0FFF771FC0546F7
:101F700008E0FFF76DFC401B41F28831884201D92F
:101F8000032061E62D4868300068C0F34000002857
:101F9000EFD1012E07D129483830006820F0805059
:101FA00026493831086000BFA069B8B323480068EB
:101FB00000F00C0008285ED0A069022846D100205D
:101FC0001F490866FFF744FC054606E0FFF740FCA2
:101FD000401B022801D9032036E61848083800685B
:101FE000C0F340600028F1D1D4E907010843616AD9
:101FF00040EA81110122A06AC2EB500041EA00418F
:102000002C20005D41EA00600C49091F0860012096
:102010000B490866FFF71CFC054607E02DE0FFF7BB
:1020200017FC401B022801D903200DE6034808389D
:102030000068C0F340600028F1D01EE0083802407C
:1020400000004742800E47420070004000200C49CB
:102050000866FFF7FDFB054606E0FFF7F9FB401BAE
:10206000022801D90320EFE506480068C0F340606C
:102070000028F2D101E00120E6E50020E4E50000BF
:10208000000047420038024070B504462546681EED
:10209000B0F1807F01D301200FE0681E4FF0E021F6
:1020A00048610F214FF0FF3000F02EFE00204FF06E
:1020B000E021886107200861002070BD10B504464A
:1020C0000CB9012010BD94F83D0028B9002084F817
:1020D0003C00204600F00CF8022084F83D00211D51
:1020E000206800F0C5FA012084F83D000020E9E7EF
:1020F00070470146022081F83D000868806800F0C2
:102100000702062A05D00868006840F001000B6845
:102110001860012081F83D000020704710B504468A
:102120000CB9012010BDA06900B100E000BF94F817
:10213000390028B9002084F83800204600F027F83C
:10214000242084F839002068C06820F400502168F9
:10215000C860204600F0F8FA2068006920F490403A
:10216000216808612068406920F02A0021684861E0
:102170002068C06840F400502168C8600020E06317
:10218000202084F8390084F83A000020CAE770471C
:1021900010B53249096801F0004149B12F49096879
:1021A00041F000412D4A11608169891C816110BD97
:1021B0002A49083909682A4A11622849091F0978F9
:1021C00082F824102549C91E0978916223490C31EF
:1021D0000968D1622149891E098811861F49096849
:1021E00051631E49091D096891631C491031096832
:1021F000D1631CA200210BE0535C254C636000BF3F
:10220000234B1B6803F04003002BF9D04B1CD9B2C1
:102210002929F1D300211F4A116000BF1D49096817
:102220000029FBD00E4A0168116041685160816845
:102230009160C168D1600169116141695161816931
:102240009161C169D1610021124A116000BF114939
:1022500009680029FBD000BFA9E700002CED00E0D1
:1022600034B900200D0A456E7465722048617264AD
:102270004661756C745F48616E646C65722C2053A6
:10228000797374656D2048616C742E0D0A0000002E
:10229000001001406400002000B587B000BF00209E
:1022A00001903348006840F0010031490860084659
:1022B000006800F00100019000BF00BF00BF0020D7
:1022C00001900846006840F0010008600846006878
:1022D00000F00100019000BF00BF00BF002001908E
:1022E00023481430006840F0100021491431086080
:1022F0000846006800F01000019000BF00BF4815BC
:1023000002900220039001200490032005900720F2
:10231000069002A91748FFF79BF94FF480600290DE
:102320000720069002A91348FFF792F90122002125
:102330002520FFF7F4FA2520FFF7E1FA0C2300220D
:102340004FF4E1310C4801F0A5FA0B48006820F089
:102350004000094908600846006820F02000086035
:102360000846C06840F02000C86007B000BD00000B
:1023700030380240000002400010014000BFFEE77C
:102380007047704700B587B000BF002001900D482E
:10239000006840F002000B4908600846006800F041
:1023A0000200019000BF00BF0120039000200490B4
:1023B000032005900420029002A90348FFF748F982
:1023C00007B000BD303802400004024070470000F2
:1023D00010B5FFF743FA0448007800B910BD00F0CB
:1023E00005F800BFFAE700005000002010B51A48B9
:1023F000006840B118480068401E1749086010B9CD
:10240000012016490870002408E004EB4401144A36
:1024100002EB810001F06AFA601CC4B2042CF4DB08
:1024200010480068401C0F490860084600686FF0BB
:102430000041884202D100200A49086001F028FAD0
:1024400009480078401CC0B2074908700A2801DB1F
:102450000020087010BD000044000020480000204B
:10246000D8B000204C0000205100002000B593B0EF
:1024700000BF002001903048006840F080502E4995
:1024800008600846006800F08050019000BF00BF5F
:1024900000BF002001902948006840F4804027498F
:1024A00008600846006800F48040019000BF00BF4B
:1024B0000120029000040390022008904105099138
:1024C00019210A914FF4A8710B9102210C9104215A
:1024D0000D9102A8FFF7B4FB18B1702118A0FFF707
:1024E000ACF80F200E9002200F90002010904FF4B7
:1024F000A05011904FF48050129005210EA8FFF7C4
:1025000061FA18B183210EA0FFF797F800BF0020F1
:1025100001900948001D006840F480400649091DEB
:1025200008600846006800F48040019000BF00BFCA
:10253000FFF788F813B000BD40380240007000403B
:102540002E2E5C2E2E5C557365725C6273705C621D
:1025500073702E63000000001448006840F470009F
:10256000124908601248006840F0010010490860F4
:1025700000200F49083108600D4800680D490840E7
:102580000B4908600C48091D0860081F006820F40A
:102590008020091F0860002005490C3108604FF0B9
:1025A00000600249803908607047000088ED00E053
:1025B00000380240FFFFF6FE1030002470B5002501
:1025C00000264FF08044206900F00205E06800F02A
:1025D00002065DB156B14FF6FD702061E0684FF61E
:1025E000FD710840E0601E4800688047206900F0E7
:1025F0000405E06800F004065DB156B14FF6FB70CB
:102600002061E0684FF6FB710840E0601548006803
:102610008047206900F00805E06800F008065DB119
:1026200056B14FF6F7702061E0684FF6F771084039
:10263000E0600D4800688047206900F01005E06800
:1026400000F010065DB156B14FF6EF702061E06802
:102650004FF6EF710840E06004480068804770BDA5
:1026600034000020380000203C0000204000002002
:1026700010B50268294B98420ED0B0F1804F0BD0B4
:10268000274B984208D0274B984205D0264B9842BA
:1026900002D0264B984203D122F070024B681A43B5
:1026A0001E4B984220D0B0F1804F1DD01C4B984259
:1026B0001AD01C4B984217D01B4B984214D01B4B7E
:1026C000984211D01A4B98420ED01A4B98420BD018
:1026D000194B984208D0194B984205D0184B984294
:1026E00002D0184B984203D122F44072CB681A43AF
:1026F00022F080034C6943EA040202608B68C362E3
:102700000B688362054B984202D0084B984201D176
:102710000B6903630123436110BD00000000014009
:102720000004004000080040000C0040000401408C
:1027300000400140004401400048014000180040B2
:10274000001C0040002000402DE9F04104462068B4
:10275000006920F44050E16808432168086121695C
:10276000A068084361690843E16940EA01052068FF
:10277000C06849F20C61884328432168C86020681A
:10278000406920F44070A169084321684861E0690C
:10279000B0F5004F7ED1C4492068884203D0C349B8
:1027A000206888425DD1FFF7E3F900EBC00101EB3F
:1027B000001061684900B0FBF1F06421B0FBF1F05A
:1027C0000601FFF7D5F900EBC00101EB00106168CD
:1027D0004900B0FBF1F7FFF7CBF900EBC00101EBCB
:1027E000001061684900B0FBF1F06421B0FBF1F02A
:1027F00000EBC00101EB0010A7EB8000322101EBE0
:10280000C0006421B0FBF1F000F0F80006EB4006D8
:10281000FFF7AEF900EBC00101EB00106168490061
:10282000B0FBF1F7FFF7A4F900EBC00101EB0010DA
:1028300061684900B0FBF1F06421B0FBF1F000EBFE
:10284000C00101EB0010A7EB8000322101EBC000BA
:102850006421B0FBF1F000F007003044216888608B
:1028600020E1FFF775F900EBC00101EB0010616892
:102870004900B0FBF1F06421B0FBF1F00601FFF775
:1028800067F900EBC00101EB001061684900B0FB83
:10289000F1F700E045E0FFF75BF900EBC00101EB69
:1028A000001061684900B0FBF1F06421B0FBF1F069
:1028B00000EBC00101EB0010A7EB8000322101EB1F
:1028C000C0006421B0FBF1F000F0F80006EB400618
:1028D000FFF73EF900EBC00101EB00106168490011
:1028E000B0FBF1F7FFF734F900EBC00101EB00108A
:1028F00061684900B0FBF1F06421B0FBF1F000EB3E
:10290000C00101EB0010A7EB8000322101EBC000F9
:102910006421B0FBF1F000F00700304421688860CA
:10292000C0E061492068884203D06049206888423D
:102930005CD1FFF71DF900EBC00101EB00106168ED
:102940008900B0FBF1F6FFF713F900EBC00101EBD2
:10295000001061688900B0FBF1F06421B0FBF1F078
:1029600000EBC00101EB0010A6EB8000322101EB6F
:1029700000106421B0FBF1F000F0F006FFF7F8F86A
:1029800000EBC00101EB001061688900B0FBF1F0C1
:102990006421B0FBF1F006EB0016FFF7E9F800EB5D
:1029A000C00101EB001061688900B0FBF1F7FFF78F
:1029B000DFF800EBC00101EB001061688900B0FB9B
:1029C000F1F06421B0FBF1F000EBC00101EB00106D
:1029D000A7EB8000322101EB00106421B0FBF1F085
:1029E00000F00F003044216888605BE0FFF7B0F82A
:1029F00000EBC00101EB001061688900B0FBF1F64B
:102A0000FFF7A6F800EBC00101EB00106168890038
:102A1000B0FBF1F06421B0FBF1F000EBC00101EB81
:102A20000010A6EB8000322101EB00106421B0FB06
:102A3000F1F000F0F006FFF78BF800EBC00101EBBE
:102A4000001061688900B0FBF1F06421B0FBF1F087
:102A500006EB0016FFF77CF800EBC00101EB00105D
:102A600061688900B0FBF1F7FFF772F800EBC00175
:102A700001EB001061688900B0FBF1F06421B0FB4C
:102A8000F1F000EBC00101EB0010A7EB8000322158
:102A900001EB00106421B0FBF1F000F00F003044B6
:102AA00021688860BDE8F0810010014000140140F9
:102AB00010B5024800F029F810BD000008B1002050
:102AC00070B504460D46012000F044F9668B0020E5
:102AD00000F040F90EB9002070BD218BA068405C69
:102AE0002870012000F036F9208B401C80B2208332
:102AF000E189884201DB00202083608B401E6083D7
:102B0000002000F027F90120E6E72DE9F041044616
:102B1000206805682068C6682068D0F8148005F031
:102B20002000D8B120684068C7B2E18AA068475445
:102B3000E08A401C80B2E082E189884201DB00200B
:102B4000E082608BE189884202DA608B401C6083FE
:102B5000606A10B13846616A884700BF05F080009E
:102B600028B306F0800010B3A08A60B92068C0685E
:102B700020F080002168C8602068C06840F04000F4
:102B80002168C86013E0012084F82800618A606829
:102B9000405C21684860608A401C80B26082A189E4
:102BA000884201DB00206082A08A401EA08205F0DE
:102BB000400018B306F0400000B3A08A68B920684E
:102BC000C06820F040002168C860206A08B1206A0F
:102BD0008047002084F8280010E0618A6068405C2B
:102BE00021684860608A401C80B26082A189884266
:102BF00001DB00206082A08A401EA082BDE8F08137
:102C0000F8B504460F461646002539E01EE00120BF
:102C100000F0A0F8A08A0090002000F09BF8A089A6
:102C2000BDF80010884200DD11E0A089BDF8001059
:102C300088420AD12068C06800F0800028B9206866
:102C4000C06840F080002168C86000BFDFE700BFB7
:102C5000785D228A61688854012000F07BF8208A20
:102C6000401C80B22082A189884201DB00202082A2
:102C7000A08A401CA082002000F06CF8681C85B27D
:102C8000B542C3DB2068C06840F080002168C8609E
:102C9000F8BD00000B480C4908600C4848600C481F
:102CA00088604FF480608881C88100200882488253
:102CB000C882088348838882C8610862486281F8B4
:102CC000280070470010014008B1002034B10020F6
:102CD00034B5002000BFFEE70FB4054B10B503A9C3
:102CE000044A029800F0FCF810BC5DF814FB0000E8
:102CF000013A00086800002002480068C0F3022082
:102D0000704700000CED00E010B5002804DB0A0756
:102D1000130E054A135406E00A07140E034A00F086
:102D20000F031B1FD45410BD00E400E018ED00E0B9
:102D300002E008C8121F08C1002AFAD17047704784
:102D4000002001E001C1121F002AFBD1704780F36F
:102D50001088704780F31088704700002DE9FF5FEE
:102D600082B00021DDE90430020DDDF840B00343FC
:102D700018D044F61050A2F2FF32424315141198B5
:102D800001281FD0A5EB0B00401C5FEA000A4FF0A2
:102D900000064E4FDFF83891B046504615D5CAF1BF
:102DA000000413E0119801244AA3012801D16FEA1D
:102DB0000B010298119AC0E90031C0E9024206B045
:102DC000BDE8F09FCBF10000DFE704460021404A58
:102DD000491842EB0450CDE9001012E0E00707D09B
:102DE00032463B4640464946FEF74DFA8046894604
:102DF00032463B4610461946FEF745FA06460F4650
:102E00006410002CEAD1DDE90401DDE90023BAF108
:102E1000000F06DAFEF737FA42464B46FEF733FA62
:102E200005E0FEF7A2FA42464B46FEF79EFA04463C
:102E30000E460022284BFEF71FFB03D84FF0FF3051
:102E4000014607E00022254B20463146FEF774F983
:102E5000FEF7FAFA102409E0002C0ADB0A2200230C
:102E6000FEF7C6F8039B30321A55641E50EA010281
:102E7000F2D1641C039AC4F111031444119A012A7B
:102E800003D0012208430DD10AE0084304D00020FA
:102E90004FF0110B119072E7A3EB0B056D1E0DE0C7
:102EA0005B4504DD4FF0000205F1010504E003DAA3
:102EB0004FF00002A5F10105002AECD0029811990B
:102EC000C0E90231C0E9004579E700000000144084
:102ED0000000F03F300000000000F0430000E03F41
:102EE0002DE9FF4F95B09B468946064600250FE227
:102EF000252877D100242746F84A0121059400E0CF
:102F0000044316F8013F203B01FA03F01042F7D1C9
:102F100030782A2811D06FF02F033078A0F13002DA
:102F2000092A16D8059A44F0020402EB820203EB48
:102F300042021044761C0590EFE759F8042B0592E5
:102F4000002A03DA504244F40054059044F002048D
:102F5000761C30782E2816D116F8010F44F00404A0
:102F60002A280DD06FF02F023078A0F13003092B02
:102F700009D807EB870302EB4303C718761CF3E776
:102F800059F8047B761C30786C280FD006DC4C286E
:102F900017D068280DD06A2814D104E0742810D006
:102FA0007A280FD10DE044F400140AE044F48014B0
:102FB00001E044F440147278824202D104F5801496
:102FC000761C761C307866280BD013DC582877D016
:102FD00009DC002875D04528F6D04628F4D04728CB
:102FE0001AD19DE118E0632835D0642879D065288E
:102FF00012D195E1702873D008DC6728F1D06928D8
:103000006FD06E280DD06F2806D1B5E073282CD074
:10301000752875D0782874D05A46179990476D1C3A
:1030200075E1C4F30250022809D003280DD0D9F865
:10303000001004280DD00D6009F1040967E1D9F8EA
:103040000010EA17C1E90052F6E7D9F800100D8028
:10305000F2E70D70F0E719F8041B8DF8001000205E
:103060008DF80100EA46012003E059F804AB4FF067
:10307000FF3061074FF0000102D40DE008F10101BB
:103080008846B9420FDA8045F8DB1AF808100029A3
:10309000F4D108E008F1010188468142FADB1AF810
:1030A00008100029F6D105985B46A0EB08072146D9
:1030B0003846179A00F094FA284400EB080507E018
:1030C0004DE029E10DE01AF8010B5A461799904797
:1030D000B8F10108F7D25B4621463846179A13E14A
:1030E00042E00A220092C4F302524FF0000A022A80
:1030F00008D059F804CB032A4FEAEC710AD00DE04E
:1031000029E02AE009F1070121F00702F2E802C1F3
:10311000914609E00FFA8CFC4FEAEC71042A03D1C6
:103120004FFA8CFC4FEAEC71002907DA0A460021BD
:10313000DCF1000C61EB02012D2202E0220504D536
:103140002B228DF80420012203E0E20701D0202287
:10315000F7E7904659E00A2102E010220DE0102125
:103160004FF0000A00910BE010224FF0000A44F0EB
:1031700004040827009203E008224FF0000A00929E
:10318000C4F30252022A05D059F804CB0021032AC5
:1031900008D009E009F1070121F00702F2E802C1B5
:1031A000914605E01FFA8CFC042A01D10CF0FF0CBB
:1031B0004FF00008220728D5702806D0009B83F026
:1031C000100353EA0A0305D00EE040228DF80420D4
:1031D000012208E05CEA010206D030228DF80420CA
:1031E0008DF8050002229046009B83F0080353EA05
:1031F0000A030AD15CEA010201D1620705D5302237
:103200008DF804204FF001087F1E582804D034A008
:1032100003900EA802900DE036A0F9E753466046F1
:10322000009AFDF7E5FE84460398825C0298401EF2
:10323000029002705CEA0100F0D1029806A9081A17
:1032400000F1200A600702D524F4803400E0012751
:10325000574502DDA7EB0A0000E0002000EB0A0161
:10326000009005984144401A0590E00306D45B465F
:103270002146179A059800F0B3F90544002706E0A7
:1032800001A85A46C05D179990476D1C7F1C4745A1
:10329000F6DBE0030CD55B462146179A059800F053
:1032A0009FF9054404E030205A46179990476D1C59
:1032B0000099481E00900029F5DC08E00298029968
:1032C0005A460078491C0291179990476D1CBAF133
:1032D0000001AAF1010AF1DC65E100000928010002
:1032E000303132333435363738396162636465667C
:1032F000000000003031323334353637383941423E
:10330000434445460000000000F058F90544761C8F
:10331000307800287FF4ECAD19B02846BDE8F08F76
:10332000620700D4062709F1070222F0070CFCE827
:103330000223E14603F000485FEA080C02D00FF2D6
:10334000702C0DE05FEA045C02D50FF2682C07E0F8
:103350005FEAC47C02D00FF2602C01E0AFF2700C87
:103360004FF0FF3823F00043CDF850C065280CD053
:1033700006DC452809D046281DD047283DD13DE030
:10338000662818D067287ED138E00021112F01DB94
:10339000112000E0781CCDE9000106A90EA8FFF776
:1033A000DDFCDDE90F010E9A03910021009207F187
:1033B000010A04914DE04FF000400097CDE9011063
:1033C00006A90EA8FFF7CAFCDDE90F0203920E9BC7
:1033D00011990022DDF80CA00093049211B9791C18
:1033E00000EB010AB7EB0A0004D4C0F1FF3007F18B
:1033F000010A0490AAEB0700019044E0012F00DAD3
:1034000001270021112F01DD112000E03846CDE910
:10341000000106A90EA8FFF7A1FCDDE90F010E9A35
:103420000391002104910092BA4621070CD403991C
:10343000514500DA8A46BAF1010F05DD009AAAF17A
:103440000101515C302908D0B84202DA10F1040FB2
:1034500006DA0121CDE9011015E0AAF10101E9E741
:10346000002805DC049901440491AAEB000102E064
:10347000411C514500DD8A460499401A401C0190C8
:103480004FF000400290200704D40198504501DB22
:10349000CDF8048000208DF84F0002980DF14F0701
:1034A000B0F1004F25D02B200E9002984FF002086B
:1034B00000280CDA404202902D200E9007E00A21ED
:1034C0000298FDF704FE3031029007F8011DB8F1B3
:1034D0000001A8F10108F2DC02980028EFD1791E62
:1034E0000E980870307800F0200040F0450007F892
:1034F000020D12A8C01B00F107081498007800B153
:10350000012000EB0A01019801EBE07105984144AC
:10351000401A401E0590E00306D45B462146179AE8
:10352000059800F05DF805441498007818B15A46E3
:10353000179990476D1CE00324D55B462146179AE6
:10354000059800F04DF805441CE00498002807DBBE
:10355000DDE90301884203DD0098405C179901E032
:10356000179930205A469047049805F10105401CF0
:1035700004900198401E019004D12E205A461799BC
:1035800090476D1CBAF10001AAF1010ADDDC05E0EB
:1035900017F8010B5A46179990476D1CB8F10001B6
:1035A000A8F10108F4DC5B462146179A0598ABE6C2
:1035B0002D0000002B000000200000002DE9F0414C
:1035C000044600251E461746880404D405E0394603
:1035D0002020B0476D1C641EF9D52846BDE8F08157
:1035E0002DE9F041044600251E469046C80301D54A
:1035F000302700E02027880404D505E041463846FE
:10360000B0476D1C641EF9D52846BDE8F081000066
:1036100010B52DED028B4FF480602C49086000201E
:103620002B49086001202B490860002422E09FED0F
:103630002A0A012000EB4400284901EB800080EDBC
:10364000000A00EE104AB8EE400ADFED250A20EE2F
:10365000200ADFED240A80EE201AB0EE418AB0EE97
:10366000480AFCF70DFE1D4901EBC40080ED000A7D
:10367000601C84B2B4F5806FD9DB16480378144817
:10368000027816491848FDF79FF910481749026853
:103690001248FCF72FFE002412E0144800EB8400CF
:1036A00090ED000A10EE101A0846FDF7FDFC41EC03
:1036B000180B53EC182B0EA0FFF70EFB601C84B206
:1036C000B4F5806FE9DBBDEC028B10BD000000207B
:1036D0000400002008000020000000006C00002012
:1036E00062149D4300007A44C03A00086C400020F8
:1036F00025660D0A00000000704710B5FEF7BAF805
:10370000FEF7B4FE00F068F800F0BAF8FDF758FFD5
:1037100010BD0000F0B591B0402101A8FDF7B2FC4A
:103720004FF0804500BF002000901F48006840F027
:1037300001001D4908600846006800F00100009083
:1037400000BF00BF1948006847081948B7FBF0F0F0
:10375000401E86B2B5F1804F02D01648854202D194
:103760004FF0FF3401E04FF6FF7401950296049488
:1037700000210591039106918021079101A8FEF790
:103780009DFC20B140F21F210BA0FDF756FF022245
:1037900000211C20FEF7C3F81C20FEF7B0F801A89A
:1037A000FEF7A7FC11B0F0BD4038024060000020D9
:1037B00040420F00000C00402E2E5C2E2E5C5573F4
:1037C00065725C6273705C7372635C6273705F7469
:1037D000696D65722E63000070B5002416E000204C
:1037E00004EB4401214A02EB8101486004EB4401EF
:1037F00002EB8101886004EB440102EB8101487017
:1038000004EB440102F82100601CC4B2042CE6DB86
:10381000174800684FF47A72B0FBF2F1481EB0F11D
:10382000807F00D31BE0481E4FF0E022506150170C
:103830000F22002804DB13071D0E0E4B1D5406E05B
:1038400013071E0E0C4B00F00F052D1F5E5500BF19
:1038500000204FF0E02290610720106100BF01209E
:1038600006490870FFF756FF70BD0000D8B0002071
:103870006000002000E400E018ED00E050000020AF
:1038800010B5FFF707FAFEF707FDFEF77BFD10BD49
:1038900070470000F0B591B004460D4617461E462D
:1038A00001940295002103910491059707910696D2
:1038B000089101A8FEF732FC20B140F2BB2102A022
:1038C000FDF7BBFE11B0F0BD2E2E5C2E2E5C5573A5
:1038D00065725C6273705C7372635C6273705F7557
:1038E0006172745F6669666F2E630000416851B152
:1038F0004168491E416031B90121417001780129B7
:1039000001D181684160704770B504460D46042CB2
:1039100006DB124A12A11AA0FFF7DEF900BFFEE78C
:103920000120FFF714FA04EB44001D4901EB80006D
:10393000456004EB440001EB80008560002004EB4F
:103940004401174A02EB81014870012004EB440155
:1039500002F821000020FFF7FAF970BD873A00084D
:103960002E2E5C2E2E5C557365725C6273705C73D8
:1039700072635C6273705F74696D65722E630000C0
:103980004572726F723A2066696C652025732C202F
:1039900066756E6374696F6E20257328290D0A00A1
:1039A000D8B0002070B505460E462846FDF710FE3B
:1039B00004460CB9002070BD31462046FFF780F860
:1039C000F9E72DE9F04105460E4617462846FDF772
:1039D000FFFD04460CB9BDE8F081E06908B1E0697B
:1039E00080473A4631462046FFF70AF900BFF2E722
:1039F00013B50446012201A92046FFF7E2FF1CBDD2
:103A000070B504460D46E1B20020FFF7F1FF2046F5
:103A100070BD000086B0142212A16846FDF719FBA4
:103A2000FFF76BFE64210020FFF76EFF18E0FFF741
:103A300063FE05A90020FFF7B5FF88B19DF81400CB
:103A400031280BD16846FDF728FB84B2224669462F
:103A50000020FFF7B6FFFFF7DBFD00E000BF00BF6F
:103A6000E5E70000BDD3CAD5B5BDB4AEBFDAC3FC2F
:103A7000C1EE310D0A0000006273705F5374617211
:103A80007454696D6572006273705F53746172740F
:103A90004175746F54696D6572006273705F537421
:103AA0006F7054696D657200000000000000000036
:103AB00001020304060708090000000001020304D4
:103AC00000040000D03A0008D05A0008080700009F
:103AD0000000803F00000000C4FE7F3F890FC93B0B
:103AE00011FB7F3F900E493CE6F47F3FB6C9963C00
:103AF00043EC7F3FB00AC93C29E17F3FB949FB3C19
:103B000098D37F3F2CC3163D8FC37F3F07E02F3DE7
:103B10000FB17F3F2FFB483D189C7F3F6814623DEB
:103B2000AB847F3F742B7B3DC76A7F3F0A208A3D71
:103B30006D4E7F3F05A9963D9D2F7F3F8C30A33D65
:103B4000580E7F3F80B6AF3D9DEA7E3FC33ABC3DF5
:103B50006DC47E3F36BDC83DC99B7E3FB93DD53D56
:103B6000B0707E3F2EBCE13D23437E3F7638EE3D74
:103B700024137E3F73B2FA3DB1E07D3F0295033ED0
:103B8000CCAB7D3F86CF093E74747D3FB708103EB5
:103B9000AC3A7D3F8340163E73FE7C3FDE761C3E92
:103BA000C9BF7C3FB6AB223EB07E7C3FFCDE283EE8
:103BB000283B7C3FA2102F3E31F57B3F9840353E9D
:103BC000CDAC7B3FCF6E3B3EFC617B3F379B413EA4
:103BD000BE147B3FC2C5473E16C57A3F60EE4D3EE0
:103BE00002737A3F0115543E841E7A3F97395A3E3C
:103BF0009DC7793F135C603E4E6E793F667C663EA2
:103C00009812793F7F9A6C3E7BB4783F51B6723EF2
:103C1000F853783FCCCF783E10F1773FE1E67E3E17
:103C2000C58B773FC07D823E1724773FCE86853E89
:103C300007BA763F938E883E974D763F07958B3E29
:103C4000C6DE753F229A8E3E976D753FDD9D913E93
:103C50000BFA743F31A0943E2284743F17A1973E23
:103C6000DD0B743F86A09A3E3F91733F789E9D3E48
:103C70004714733FE59AA03EF894723FC595A33E62
:103C80005213723F128FA63E578F713FC486A93ED2
:103C90000809713FD47CAC3E6680703F3A71AF3EFC
:103CA00073F56F3FEF63B23E30686F3FEC54B53E43
:103CB0009ED86E3F2A44B83EBE466E3FA031BB3E02
:103CC00093B26D3F4A1DBE3E1D1C6D3F1E07C13E97
:103CD0005E836C3F15EFC33E58E86B3F29D5C63E67
:103CE0000C4B6B3F53B9C93E7BAB6A3F8B9BCC3EC1
:103CF000A7096A3FCA7BCF3E9165693F095AD23E08
:103D00003CBF683F4136D53EA816683F6B10D83E91
:103D1000D86B673F80E8DA3ECCBE663F79BEDD3EB9
:103D2000880F663F4F92E03E0B5E653FFA63E33ECD
:103D300059AA643F7533E63E73F4633FB700E93E2A
:103D40005A3C633FBBCBEB3E1082623F7994EE3E20
:103D500098C5613FEA5AF13EF206613F071FF43E03
:103D60002146603FCBE0F63E27835F3F2DA0F93E22
:103D700005BE5E3F275DFC3EBEF65D3FB217FF3ECF
:103D8000532D5D3FE4E7003FC7615C3FB142023F16
:103D90001A945B3F3D9C033F50C45A3F84F4043F58
:103DA0006AF2593F824B063F6A1E593F36A1073FD0
:103DB0005348583F9BF5083F2670573FAD480A3F90
:103DC000E595563F6B9A0B3F93B9553FD0EA0C3FB0
:103DD00031DB543FDA390E3FC3FA533F84870F3F3C
:103DE0004918533FCDD3103FC633523FB01E123F48
:103DF0003D4D513F2A68133FAF64503F39B0143FE7
:103E00001F7A4F3FD9F6153F908D4E3F073C173F25
:103E1000029F4D3FC07F183F79AE4C3F00C2193F13
:103E2000F8BB4B3FC6021B3F7FC74A3F0C421C3FBB
:103E300012D1493FD17F1D3FB3D8483F12BC1E3F2E
:103E400065DE473FCBF61F3F2AE2463FF92F213F71
:103E500003E4453F9967223FF5E3443FA99D233F93
:103E600000E2433F25D2243F29DE423F0A05263F98
:103E700070D8413F5636273FDAD0403F0566283F8D
:103E800067C73F3F1594293F1BBC3E3F82C02A3F76
:103E9000F9AE3D3F4AEB2B3F03A03C3F69142D3F59
:103EA0003B8F3B3FDE3B2E3FA47C3A3FA5612F3F3B
:103EB0004268393FBB85303F1652383F1DA8313F1D
:103EC000233A373FC9C8323F6C20363FBCE7333F07
:103ED000F304353FF304353FBCE7333F6C20363FF6
:103EE000C9C8323F233A373F1DA8313F1652383FE9
:103EF000BB85303F4268393FA5612F3FA47C3A3FE4
:103F0000DE3B2E3F3B8F3B3F69142D3F03A03C3FE0
:103F10004AEB2B3FF9AE3D3F82C02A3F1BBC3E3FE0
:103F20001594293F67C73F3F0566283FDAD0403FD9
:103F30005636273F70D8413F0A05263F29DE423FCB
:103F400025D2243F00E2433FA99D233FF5E3443FB0
:103F50009967223F03E4453FF92F213F2AE2463F7C
:103F6000CBF61F3F65DE473F12BC1E3FB3D8483F2C
:103F7000D17F1D3F12D1493F0C421C3F7FC74A3FB2
:103F8000C6021B3FF8BB4B3F00C2193F79AE4C3F06
:103F9000C07F183F029F4D3F073C173F908D4E3F1B
:103FA000D9F6153F1F7A4F3F39B0143FAF64503FE9
:103FB0002A68133F3D4D513FB01E123FC633523F5A
:103FC000CDD3103F4918533F84870F3FC3FA533F67
:103FD000DA390E3F31DB543FD0EA0C3F93B9553FFD
:103FE0006B9A0B3FE595563FAD480A3F2670573F09
:103FF0009BF5083F5348583F36A1073F6A1E593F7B
:10400000824B063F6AF2593F84F4043F50C45A3F42
:104010003D9C033F1A945B3FB142023FC7615C3F46
:10402000E4E7003F532D5D3FB217FF3EBEF65D3F14
:10403000275DFC3E05BE5E3F2DA0F93E27835F3F16
:10404000CBE0F63E2146603F071FF43EF206613F9B
:10405000EA5AF13E98C5613F7994EE3E1082623F84
:10406000BBCBEB3E5A3C633FB700E93E73F4633F82
:104070007533E63E59AA643FFA63E33E0B5E653F43
:104080004F92E03E880F663F79BEDD3ECCBE663F74
:1040900080E8DA3ED86B673F6B10D83EA816683FC1
:1040A0004136D53E3CBF683F095AD23E9165693FD3
:1040B000CA7BCF3EA7096A3F8B9BCC3E7BAB6A3F56
:1040C00053B9C93E0C4B6B3F29D5C63E58E86B3FF0
:1040D00015EFC33E5E836C3F1E07C13E1D1C6D3F46
:1040E0004A1DBE3E93B26D3FA031BB3EBE466E3F01
:1040F0002A44B83E9ED86E3FEC54B53E30686F3FC0
:10410000EF63B23E73F56F3F3A71AF3E6680703F2A
:10411000D47CAC3E0809713FC486A93E578F713FDD
:10412000128FA63E5213723FC595A33EF894723F7C
:10413000E59AA03E4714733F789E9D3E3F91733FA2
:1041400086A09A3EDD0B743F17A1973E2284743FF0
:1041500031A0943E0BFA743FDD9D913E976D753F03
:10416000229A8E3EC6DE753F07958B3E974D763F71
:10417000938E883E07BA763FCE86853E1724773FDA
:10418000C07D823EC58B773FE1E67E3E10F1773FF2
:10419000CCCF783EF853783F51B6723E7BB4783F2F
:1041A0007F9A6C3E9812793F667C663E4E6E793FF0
:1041B000135C603E9DC7793F97395A3E841E7A3F13
:1041C0000115543E02737A3F60EE4D3E16C57A3FAC
:1041D000C2C5473EBE147B3F379B413EFC617B3FDF
:1041E000CF6E3B3ECDAC7B3F9840353E31F57B3FBB
:1041F000A2102F3E283B7C3FFCDE283EB07E7C3F59
:10420000B6AB223EC9BF7C3FDE761C3E73FE7C3FD0
:104210008340163EAC3A7D3FB708103E74747D3F34
:1042200086CF093ECCAB7D3F0295033EB1E07D3F9A
:1042300073B2FA3D24137E3F7638EE3D23437E3F32
:104240002EBCE13DB0707E3FB93DD53DC99B7E3F60
:1042500036BDC83D6DC47E3FC33ABC3D9DEA7E3F3E
:1042600080B6AF3D580E7F3F8C30A33D9D2F7F3FE2
:1042700005A9963D6D4E7F3F0A208A3DC76A7F3F64
:10428000742B7B3DAB847F3F6814623D189C7F3F5D
:104290002FFB483D0FB17F3F07E02F3D8FC37F3F8E
:1042A0002CC3163D98D37F3FB949FB3C29E17F3FA2
:1042B000B00AC93C43EC7F3FB6C9963CE6F47F3F69
:1042C000900E493C11FB7F3F890FC93BC4FE7F3FE5
:1042D000000000000000803F890FC9BBC4FE7F3F83
:1042E000900E49BC11FB7F3FB6C996BCE6F47F3FF8
:1042F000B00AC9BC43EC7F3FB949FBBC29E17F3F11
:104300002CC316BD98D37F3F07E02FBD8FC37F3FDF
:104310002FFB48BD0FB17F3F681462BD189C7F3FE3
:10432000742B7BBDAB847F3F0A208ABDC76A7F3F69
:1043300005A996BD6D4E7F3F8C30A3BD9D2F7F3F5D
:1043400080B6AFBD580E7F3FC33ABCBD9DEA7E3FED
:1043500036BDC8BD6DC47E3FB93DD5BDC99B7E3F4E
:104360002EBCE1BDB0707E3F7638EEBD23437E3F6C
:1043700073B2FABD24137E3F029503BEB1E07D3FC8
:1043800086CF09BECCAB7D3FB70810BE74747D3FAD
:10439000834016BEAC3A7D3FDE761CBE73FE7C3F8A
:1043A000B6AB22BEC9BF7C3FFCDE28BEB07E7C3FE0
:1043B000A2102FBE283B7C3F984035BE31F57B3F95
:1043C000CF6E3BBECDAC7B3F379B41BEFC617B3F9C
:1043D000C2C547BEBE147B3F60EE4DBE16C57A3FD8
:1043E000011554BE02737A3F97395ABE841E7A3F34
:1043F000135C60BE9DC7793F667C66BE4E6E793F9A
:104400007F9A6CBE9812793F51B672BE7BB4783FEA
:10441000CCCF78BEF853783FE1E67EBE10F1773F0F
:10442000C07D82BEC58B773FCE8685BE1724773F81
:10443000938E88BE07BA763F07958BBE974D763F21
:10444000229A8EBEC6DE753FDD9D91BE976D753F8B
:1044500031A094BE0BFA743F17A197BE2284743F1B
:1044600086A09ABEDD0B743F789E9DBE3F91733F40
:10447000E59AA0BE4714733FC595A3BEF894723F5A
:10448000128FA6BE5213723FC486A9BE578F713FCA
:10449000D47CACBE0809713F3A71AFBE6680703FF4
:1044A000EF63B2BE73F56F3FEC54B5BE30686F3F3B
:1044B0002A44B8BE9ED86E3FA031BBBEBE466E3FFA
:1044C0004A1DBEBE93B26D3F1E07C1BE1D1C6D3F8F
:1044D00015EFC3BE5E836C3F29D5C6BE58E86B3F5F
:1044E00053B9C9BE0C4B6B3F8B9BCCBE7BAB6A3FB9
:1044F000CA7BCFBEA7096A3F095AD2BE9165693F00
:104500004136D5BE3CBF683F6B10D8BEA816683F89
:1045100080E8DABED86B673F79BEDDBECCBE663FB1
:104520004F92E0BE880F663FFA63E3BE0B5E653FC5
:104530007533E6BE59AA643FB700E9BE73F4633F22
:10454000BBCBEBBE5A3C633F7994EEBE1082623F18
:10455000EA5AF1BE98C5613F071FF4BEF206613FFB
:10456000CBE0F6BE2146603F2DA0F9BE27835F3F1A
:10457000275DFCBE05BE5E3FB217FFBEBEF65D3FC7
:10458000E4E700BF532D5D3FB14202BFC7615C3F0E
:104590003D9C03BF1A945B3F84F404BF50C45A3F50
:1045A000824B06BF6AF2593F36A107BF6A1E593FC8
:1045B0009BF508BF5348583FAD480ABF2670573F88
:1045C0006B9A0BBFE595563FD0EA0CBF93B9553FA8
:1045D000DA390EBF31DB543F84870FBFC3FA533F34
:1045E000CDD310BF4918533FB01E12BFC633523F40
:1045F0002A6813BF3D4D513F39B014BFAF64503FDF
:10460000D9F615BF1F7A4F3F073C17BF908D4E3F1D
:10461000C07F18BF029F4D3F00C219BF79AE4C3F0B
:10462000C6021BBFF8BB4B3F0C421CBF7FC74A3FB3
:10463000D17F1DBF12D1493F12BC1EBFB3D8483F26
:10464000CBF61FBF65DE473FF92F21BF2AE2463F69
:10465000996722BF03E4453FA99D23BFF5E3443F8B
:1046600025D224BF00E2433F0A0526BF29DE423F90
:10467000563627BF70D8413F056628BFDAD0403F85
:10468000159429BF67C73F3F82C02ABF1BBC3E3F6E
:104690004AEB2BBFF9AE3D3F69142DBF03A03C3F51
:1046A000DE3B2EBF3B8F3B3FA5612FBFA47C3A3F33
:1046B000BB8530BF4268393F1DA831BF1652383F15
:1046C000C9C832BF233A373FBCE733BF6C20363FFF
:1046D000F30435BFF304353F6C2036BFBCE7333FEE
:1046E000233A37BFC9C8323F165238BF1DA8313FE1
:1046F000426839BFBB85303FA47C3ABFA5612F3FDC
:104700003B8F3BBFDE3B2E3F03A03CBF69142D3FD8
:10471000F9AE3DBF4AEB2B3F1BBC3EBF82C02A3FD8
:1047200067C73FBF1594293FDAD040BF0566283FD1
:1047300070D841BF5636273F29DE42BF0A05263FC3
:1047400000E243BF25D2243FF5E344BFA99D233FA8
:1047500003E445BF9967223F2AE246BFF92F213F74
:1047600065DE47BFCBF61F3FB3D848BF12BC1E3F24
:1047700012D149BFD17F1D3F7FC74ABF0C421C3FAA
:10478000F8BB4BBFC6021B3F79AE4CBF00C2193FFE
:10479000029F4DBFC07F183F908D4EBF073C173F13
:1047A0001F7A4FBFD9F6153FAF6450BF39B0143FE1
:1047B0003D4D51BF2A68133FC63352BFB01E123F52
:1047C000491853BFCDD3103FC3FA53BF84870F3F5F
:1047D00031DB54BFDA390E3F93B955BFD0EA0C3FF5
:1047E000E59556BF6B9A0B3F267057BFAD480A3F01
:1047F000534858BF9BF5083F6A1E59BF36A1073F73
:104800006AF259BF824B063F50C45ABF84F4043F3A
:104810001A945BBF3D9C033FC7615CBFB142023F3E
:10482000532D5DBFE4E7003FBEF65DBFB217FF3E0C
:1048300005BE5EBF275DFC3E27835FBF2DA0F93E0E
:10484000214660BFCBE0F63EF20661BF071FF43E93
:1048500098C561BFEA5AF13E108262BF7994EE3E7C
:104860005A3C63BFBBCBEB3E73F463BFB700E93E7A
:1048700059AA64BF7533E63E0B5E65BFFA63E33E3B
:10488000880F66BF4F92E03ECCBE66BF79BEDD3E6C
:10489000D86B67BF80E8DA3EA81668BF6B10D83EB9
:1048A0003CBF68BF4136D53E916569BF095AD23ECB
:1048B000A7096ABFCA7BCF3E7BAB6ABF8B9BCC3E4E
:1048C0000C4B6BBF53B9C93E58E86BBF29D5C63EE8
:1048D0005E836CBF15EFC33E1D1C6DBF1E07C13E3E
:1048E00093B26DBF4A1DBE3EBE466EBFA031BB3EF9
:1048F0009ED86EBF2A44B83E30686FBFEC54B53EB8
:1049000073F56FBFEF63B23E668070BF3A71AF3E22
:10491000080971BFD47CAC3E578F71BFC486A93ED5
:10492000521372BF128FA63EF89472BFC595A33E74
:10493000471473BFE59AA03E3F9173BF789E9D3E9A
:10494000DD0B74BF86A09A3E228474BF17A1973EE8
:104950000BFA74BF31A0943E976D75BFDD9D913EFB
:10496000C6DE75BF229A8E3E974D76BF07958B3E69
:1049700007BA76BF938E883E172477BFCE86853ED2
:10498000C58B77BFC07D823E10F177BFE1E67E3EEA
:10499000F85378BFCCCF783E7BB478BF51B6723E27
:1049A000981279BF7F9A6C3E4E6E79BF667C663EE8
:1049B0009DC779BF135C603E841E7ABF97395A3E0B
:1049C00002737ABF0115543E16C57ABF60EE4D3EA4
:1049D000BE147BBFC2C5473EFC617BBF379B413ED7
:1049E000CDAC7BBFCF6E3B3E31F57BBF9840353EB3
:1049F000283B7CBFA2102F3EB07E7CBFFCDE283E51
:104A0000C9BF7CBFB6AB223E73FE7CBFDE761C3EC8
:104A1000AC3A7DBF8340163E74747DBFB708103E2C
:104A2000CCAB7DBF86CF093EB1E07DBF0295033E92
:104A300024137EBF73B2FA3D23437EBF7638EE3D2A
:104A4000B0707EBF2EBCE13DC99B7EBFB93DD53D58
:104A50006DC47EBF36BDC83D9DEA7EBFC33ABC3D36
:104A6000580E7FBF80B6AF3D9D2F7FBF8C30A33DDA
:104A70006D4E7FBF05A9963DC76A7FBF0A208A3D5C
:104A8000AB847FBF742B7B3D189C7FBF6814623D55
:104A90000FB17FBF2FFB483D8FC37FBF07E02F3D86
:104AA00098D37FBF2CC3163D29E17FBFB949FB3C9A
:104AB00043EC7FBFB00AC93CE6F47FBFB6C9963C61
:104AC00011FB7FBF900E493CC4FE7FBF890FC93BDD
:104AD000000080BF00000000C4FE7FBF890FC9BB7B
:104AE00011FB7FBF900E49BCE6F47FBFB6C996BCF0
:104AF00043EC7FBFB00AC9BC29E17FBFB949FBBC09
:104B000098D37FBF2CC316BD8FC37FBF07E02FBDD7
:104B10000FB17FBF2FFB48BD189C7FBF681462BDDB
:104B2000AB847FBF742B7BBDC76A7FBF0A208ABD61
:104B30006D4E7FBF05A996BD9D2F7FBF8C30A3BD55
:104B4000580E7FBF80B6AFBD9DEA7EBFC33ABCBDE5
:104B50006DC47EBF36BDC8BDC99B7EBFB93DD5BD46
:104B6000B0707EBF2EBCE1BD23437EBF7638EEBD64
:104B700024137EBF73B2FABDB1E07DBF029503BEC0
:104B8000CCAB7DBF86CF09BE74747DBFB70810BEA5
:104B9000AC3A7DBF834016BE73FE7CBFDE761CBE82
:104BA000C9BF7CBFB6AB22BEB07E7CBFFCDE28BED8
:104BB000283B7CBFA2102FBE31F57BBF984035BE8D
:104BC000CDAC7BBFCF6E3BBEFC617BBF379B41BE94
:104BD000BE147BBFC2C547BE16C57ABF60EE4DBED0
:104BE00002737ABF011554BE841E7ABF97395ABE2C
:104BF0009DC779BF135C60BE4E6E79BF667C66BE92
:104C0000981279BF7F9A6CBE7BB478BF51B672BEE2
:104C1000F85378BFCCCF78BE10F177BFE1E67EBE07
:104C2000C58B77BFC07D82BE172477BFCE8685BE79
:104C300007BA76BF938E88BE974D76BF07958BBE19
:104C4000C6DE75BF229A8EBE976D75BFDD9D91BE83
:104C50000BFA74BF31A094BE228474BF17A197BE13
:104C6000DD0B74BF86A09ABE3F9173BF789E9DBE38
:104C7000471473BFE59AA0BEF89472BFC595A3BE52
:104C8000521372BF128FA6BE578F71BFC486A9BEC2
:104C9000080971BFD47CACBE668070BF3A71AFBEEC
:104CA00073F56FBFEF63B2BE30686FBFEC54B5BE33
:104CB0009ED86EBF2A44B8BEBE466EBFA031BBBEF2
:104CC00093B26DBF4A1DBEBE1D1C6DBF1E07C1BE87
:104CD0005E836CBF15EFC3BE58E86BBF29D5C6BE57
:104CE0000C4B6BBF53B9C9BE7BAB6ABF8B9BCCBEB1
:104CF000A7096ABFCA7BCFBE916569BF095AD2BEF8
:104D00003CBF68BF4136D5BEA81668BF6B10D8BE81
:104D1000D86B67BF80E8DABECCBE66BF79BEDDBEA9
:104D2000880F66BF4F92E0BE0B5E65BFFA63E3BEBD
:104D300059AA64BF7533E6BE73F463BFB700E9BE1A
:104D40005A3C63BFBBCBEBBE108262BF7994EEBE10
:104D500098C561BFEA5AF1BEF20661BF071FF4BEF3
:104D6000214660BFCBE0F6BE27835FBF2DA0F9BE12
:104D700005BE5EBF275DFCBEBEF65DBFB217FFBEBF
:104D8000532D5DBFE4E700BFC7615CBFB14202BF06
:104D90001A945BBF3D9C03BF50C45ABF84F404BF48
:104DA0006AF259BF824B06BF6A1E59BF36A107BFC0
:104DB000534858BF9BF508BF267057BFAD480ABF80
:104DC000E59556BF6B9A0BBF93B955BFD0EA0CBFA0
:104DD00031DB54BFDA390EBFC3FA53BF84870FBF2C
:104DE000491853BFCDD310BFC63352BFB01E12BF38
:104DF0003D4D51BF2A6813BFAF6450BF39B014BFD7
:104E00001F7A4FBFD9F615BF908D4EBF073C17BF15
:104E1000029F4DBFC07F18BF79AE4CBF00C219BF03
:104E2000F8BB4BBFC6021BBF7FC74ABF0C421CBFAB
:104E300012D149BFD17F1DBFB3D848BF12BC1EBF1E
:104E400065DE47BFCBF61FBF2AE246BFF92F21BF61
:104E500003E445BF996722BFF5E344BFA99D23BF83
:104E600000E243BF25D224BF29DE42BF0A0526BF88
:104E700070D841BF563627BFDAD040BF056628BF7D
:104E800067C73FBF159429BF1BBC3EBF82C02ABF66
:104E9000F9AE3DBF4AEB2BBF03A03CBF69142DBF49
:104EA0003B8F3BBFDE3B2EBFA47C3ABFA5612FBF2B
:104EB000426839BFBB8530BF165238BF1DA831BF0D
:104EC000233A37BFC9C832BF6C2036BFBCE733BFF7
:104ED000F30435BFF30435BFBCE733BF6C2036BFE6
:104EE000C9C832BF233A37BF1DA831BF165238BFD9
:104EF000BB8530BF426839BFA5612FBFA47C3ABFD4
:104F0000DE3B2EBF3B8F3BBF69142DBF03A03CBFD0
:104F10004AEB2BBFF9AE3DBF82C02ABF1BBC3EBFD0
:104F2000159429BF67C73FBF056628BFDAD040BFC9
:104F3000563627BF70D841BF0A0526BF29DE42BFBB
:104F400025D224BF00E243BFA99D23BFF5E344BFA0
:104F5000996722BF03E445BFF92F21BF2AE246BF6C
:104F6000CBF61FBF65DE47BF12BC1EBFB3D848BF1C
:104F7000D17F1DBF12D149BF0C421CBF7FC74ABFA2
:104F8000C6021BBFF8BB4BBF00C219BF79AE4CBFF6
:104F9000C07F18BF029F4DBF073C17BF908D4EBF0B
:104FA000D9F615BF1F7A4FBF39B014BFAF6450BFD9
:104FB0002A6813BF3D4D51BFB01E12BFC63352BF4A
:104FC000CDD310BF491853BF84870FBFC3FA53BF57
:104FD000DA390EBF31DB54BFD0EA0CBF93B955BFED
:104FE0006B9A0BBFE59556BFAD480ABF267057BFF9
:104FF0009BF508BF534858BF36A107BF6A1E59BF6B
:10500000824B06BF6AF259BF84F404BF50C45ABF32
:105010003D9C03BF1A945BBFB14202BFC7615CBF36
:10502000E4E700BF532D5DBFB217FFBEBEF65DBF04
:10503000275DFCBE05BE5EBF2DA0F9BE27835FBF06
:10504000CBE0F6BE214660BF071FF4BEF20661BF8B
:10505000EA5AF1BE98C561BF7994EEBE108262BF74
:10506000BBCBEBBE5A3C63BFB700E9BE73F463BF72
:105070007533E6BE59AA64BFFA63E3BE0B5E65BF33
:105080004F92E0BE880F66BF79BEDDBECCBE66BF64
:1050900080E8DABED86B67BF6B10D8BEA81668BFB1
:1050A0004136D5BE3CBF68BF095AD2BE916569BFC3
:1050B000CA7BCFBEA7096ABF8B9BCCBE7BAB6ABF46
:1050C00053B9C9BE0C4B6BBF29D5C6BE58E86BBFE0
:1050D00015EFC3BE5E836CBF1E07C1BE1D1C6DBF36
:1050E0004A1DBEBE93B26DBFA031BBBEBE466EBFF1
:1050F0002A44B8BE9ED86EBFEC54B5BE30686FBFB0
:10510000EF63B2BE73F56FBF3A71AFBE668070BF1A
:10511000D47CACBE080971BFC486A9BE578F71BFCD
:10512000128FA6BE521372BFC595A3BEF89472BF6C
:10513000E59AA0BE471473BF789E9DBE3F9173BF92
:1051400086A09ABEDD0B74BF17A197BE228474BFE0
:1051500031A094BE0BFA74BFDD9D91BE976D75BFF3
:10516000229A8EBEC6DE75BF07958BBE974D76BF61
:10517000938E88BE07BA76BFCE8685BE172477BFCA
:10518000C07D82BEC58B77BFE1E67EBE10F177BFE2
:10519000CCCF78BEF85378BF51B672BE7BB478BF1F
:1051A0007F9A6CBE981279BF667C66BE4E6E79BFE0
:1051B000135C60BE9DC779BF97395ABE841E7ABF03
:1051C000011554BE02737ABF60EE4DBE16C57ABF9C
:1051D000C2C547BEBE147BBF379B41BEFC617BBFCF
:1051E000CF6E3BBECDAC7BBF984035BE31F57BBFAB
:1051F000A2102FBE283B7CBFFCDE28BEB07E7CBF49
:10520000B6AB22BEC9BF7CBFDE761CBE73FE7CBFC0
:10521000834016BEAC3A7DBFB70810BE74747DBF24
:1052200086CF09BECCAB7DBF029503BEB1E07DBF8A
:1052300073B2FABD24137EBF7638EEBD23437EBF22
:105240002EBCE1BDB0707EBFB93DD5BDC99B7EBF50
:1052500036BDC8BD6DC47EBFC33ABCBD9DEA7EBF2E
:1052600080B6AFBD580E7FBF8C30A3BD9D2F7FBFD2
:1052700005A996BD6D4E7FBF0A208ABDC76A7FBF54
:10528000742B7BBDAB847FBF681462BD189C7FBF4D
:105290002FFB48BD0FB17FBF07E02FBD8FC37FBF7E
:1052A0002CC316BD98D37FBFB949FBBC29E17FBF92
:1052B000B00AC9BC43EC7FBFB6C996BCE6F47FBF59
:1052C000900E49BC11FB7FBF890FC9BBC4FE7FBFD5
:1052D00000000080000080BF890FC93BC4FE7FBF73
:1052E000900E493C11FB7FBFB6C9963CE6F47FBFE8
:1052F000B00AC93C43EC7FBFB949FB3C29E17FBF01
:105300002CC3163D98D37FBF07E02F3D8FC37FBFCF
:105310002FFB483D0FB17FBF6814623D189C7FBFD3
:10532000742B7B3DAB847FBF0A208A3DC76A7FBF59
:1053300005A9963D6D4E7FBF8C30A33D9D2F7FBF4D
:1053400080B6AF3D580E7FBFC33ABC3D9DEA7EBFDD
:1053500036BDC83D6DC47EBFB93DD53DC99B7EBF3E
:105360002EBCE13DB0707EBF7638EE3D23437EBF5C
:1053700073B2FA3D24137EBF0295033EB1E07DBFB8
:1053800086CF093ECCAB7DBFB708103E74747DBF9D
:105390008340163EAC3A7DBFDE761C3E73FE7CBF7A
:1053A000B6AB223EC9BF7CBFFCDE283EB07E7CBFD0
:1053B000A2102F3E283B7CBF9840353E31F57BBF85
:1053C000CF6E3B3ECDAC7BBF379B413EFC617BBF8C
:1053D000C2C5473EBE147BBF60EE4D3E16C57ABFC8
:1053E0000115543E02737ABF97395A3E841E7ABF24
:1053F000135C603E9DC779BF667C663E4E6E79BF8A
:105400007F9A6C3E981279BF51B6723E7BB478BFDA
:10541000CCCF783EF85378BFE1E67E3E10F177BFFF
:10542000C07D823EC58B77BFCE86853E172477BF71
:10543000938E883E07BA76BF07958B3E974D76BF11
:10544000229A8E3EC6DE75BFDD9D913E976D75BF7B
:1054500031A0943E0BFA74BF17A1973E228474BF0B
:1054600086A09A3EDD0B74BF789E9D3E3F9173BF30
:10547000E59AA03E471473BFC595A33EF89472BF4A
:10548000128FA63E521372BFC486A93E578F71BFBA
:10549000D47CAC3E080971BF3A71AF3E668070BFE4
:1054A000EF63B23E73F56FBFEC54B53E30686FBF2B
:1054B0002A44B83E9ED86EBFA031BB3EBE466EBFEA
:1054C0004A1DBE3E93B26DBF1E07C13E1D1C6DBF7F
:1054D00015EFC33E5E836CBF29D5C63E58E86BBF4F
:1054E00053B9C93E0C4B6BBF8B9BCC3E7BAB6ABFA9
:1054F000CA7BCF3EA7096ABF095AD23E916569BFF0
:105500004136D53E3CBF68BF6B10D83EA81668BF79
:1055100080E8DA3ED86B67BF79BEDD3ECCBE66BFA1
:105520004F92E03E880F66BFFA63E33E0B5E65BFB5
:105530007533E63E59AA64BFB700E93E73F463BF12
:10554000BBCBEB3E5A3C63BF7994EE3E108262BF08
:10555000EA5AF13E98C561BF071FF43EF20661BFEB
:10556000CBE0F63E214660BF2DA0F93E27835FBF0A
:10557000275DFC3E05BE5EBFB217FF3EBEF65DBFB7
:10558000E4E7003F532D5DBFB142023FC7615CBFFE
:105590003D9C033F1A945BBF84F4043F50C45ABF40
:1055A000824B063F6AF259BF36A1073F6A1E59BFB8
:1055B0009BF5083F534858BFAD480A3F267057BF78
:1055C0006B9A0B3FE59556BFD0EA0C3F93B955BF98
:1055D000DA390E3F31DB54BF84870F3FC3FA53BF24
:1055E000CDD3103F491853BFB01E123FC63352BF30
:1055F0002A68133F3D4D51BF39B0143FAF6450BFCF
:10560000D9F6153F1F7A4FBF073C173F908D4EBF0D
:10561000C07F183F029F4DBF00C2193F79AE4CBFFB
:10562000C6021B3FF8BB4BBF0C421C3F7FC74ABFA3
:10563000D17F1D3F12D149BF12BC1E3FB3D848BF16
:10564000CBF61F3F65DE47BFF92F213F2AE246BF59
:105650009967223F03E445BFA99D233FF5E344BF7B
:1056600025D2243F00E243BF0A05263F29DE42BF80
:105670005636273F70D841BF0566283FDAD040BF75
:105680001594293F67C73FBF82C02A3F1BBC3EBF5E
:105690004AEB2B3FF9AE3DBF69142D3F03A03CBF41
:1056A000DE3B2E3F3B8F3BBFA5612F3FA47C3ABF23
:1056B000BB85303F426839BF1DA8313F165238BF05
:1056C000C9C8323F233A37BFBCE7333F6C2036BFEF
:1056D000F304353FF30435BF6C20363FBCE733BFDE
:1056E000233A373FC9C832BF1652383F1DA831BFD1
:1056F0004268393FBB8530BFA47C3A3FA5612FBFCC
:105700003B8F3B3FDE3B2EBF03A03C3F69142DBFC8
:10571000F9AE3D3F4AEB2BBF1BBC3E3F82C02ABFC8
:1057200067C73F3F159429BFDAD0403F056628BFC1
:1057300070D8413F563627BF29DE423F0A0526BFB3
:1057400000E2433F25D224BFF5E3443FA99D23BF98
:1057500003E4453F996722BF2AE2463FF92F21BF64
:1057600065DE473FCBF61FBFB3D8483F12BC1EBF14
:1057700012D1493FD17F1DBF7FC74A3F0C421CBF9A
:10578000F8BB4B3FC6021BBF79AE4C3F00C219BFEE
:10579000029F4D3FC07F18BF908D4E3F073C17BF03
:1057A0001F7A4F3FD9F615BFAF64503F39B014BFD1
:1057B0003D4D513F2A6813BFC633523FB01E12BF42
:1057C0004918533FCDD310BFC3FA533F84870FBF4F
:1057D00031DB543FDA390EBF93B9553FD0EA0CBFE5
:1057E000E595563F6B9A0BBF2670573FAD480ABFF1
:1057F0005348583F9BF508BF6A1E593F36A107BF63
:105800006AF2593F824B06BF50C45A3F84F404BF2A
:105810001A945B3F3D9C03BFC7615C3FB14202BF2E
:10582000532D5D3FE4E700BFBEF65D3FB217FFBEFC
:1058300005BE5E3F275DFCBE27835F3F2DA0F9BEFE
:105840002146603FCBE0F6BEF206613F071FF4BE83
:1058500098C5613FEA5AF1BE1082623F7994EEBE6C
:105860005A3C633FBBCBEBBE73F4633FB700E9BE6A
:1058700059AA643F7533E6BE0B5E653FFA63E3BE2B
:10588000880F663F4F92E0BECCBE663F79BEDDBE5C
:10589000D86B673F80E8DABEA816683F6B10D8BEA9
:1058A0003CBF683F4136D5BE9165693F095AD2BEBB
:1058B000A7096A3FCA7BCFBE7BAB6A3F8B9BCCBE3E
:1058C0000C4B6B3F53B9C9BE58E86B3F29D5C6BED8
:1058D0005E836C3F15EFC3BE1D1C6D3F1E07C1BE2E
:1058E00093B26D3F4A1DBEBEBE466E3FA031BBBEE9
:1058F0009ED86E3F2A44B8BE30686F3FEC54B5BEA8
:1059000073F56F3FEF63B2BE6680703F3A71AFBE12
:105910000809713FD47CACBE578F713FC486A9BEC5
:105920005213723F128FA6BEF894723FC595A3BE64
:105930004714733FE59AA0BE3F91733F789E9DBE8A
:10594000DD0B743F86A09ABE2284743F17A197BED8
:105950000BFA743F31A094BE976D753FDD9D91BEEB
:10596000C6DE753F229A8EBE974D763F07958BBE59
:1059700007BA763F938E88BE1724773FCE8685BEC2
:10598000C58B773FC07D82BE10F1773FE1E67EBEDA
:10599000F853783FCCCF78BE7BB4783F51B672BE17
:1059A0009812793F7F9A6CBE4E6E793F667C66BED8
:1059B0009DC7793F135C60BE841E7A3F97395ABEFB
:1059C00002737A3F011554BE16C57A3F60EE4DBE94
:1059D000BE147B3FC2C547BEFC617B3F379B41BEC7
:1059E000CDAC7B3FCF6E3BBE31F57B3F984035BEA3
:1059F000283B7C3FA2102FBEB07E7C3FFCDE28BE41
:105A0000C9BF7C3FB6AB22BE73FE7C3FDE761CBEB8
:105A1000AC3A7D3F834016BE74747D3FB70810BE1C
:105A2000CCAB7D3F86CF09BEB1E07D3F029503BE82
:105A300024137E3F73B2FABD23437E3F7638EEBD1A
:105A4000B0707E3F2EBCE1BDC99B7E3FB93DD5BD48
:105A50006DC47E3F36BDC8BD9DEA7E3FC33ABCBD26
:105A6000580E7F3F80B6AFBD9D2F7F3F8C30A3BDCA
:105A70006D4E7F3F05A996BDC76A7F3F0A208ABD4C
:105A8000AB847F3F742B7BBD189C7F3F681462BD45
:105A90000FB17F3F2FFB48BD8FC37F3F07E02FBD76
:105AA00098D37F3F2CC316BD29E17F3FB949FBBC8A
:105AB00043EC7F3FB00AC9BCE6F47F3FB6C996BC51
:105AC00011FB7F3F900E49BCC4FE7F3F890FC9BBCD
:105AD000080000101000000218000012200000044E
